:100000000C94580C0C94830C0C94830C0C94830C5F
:100010000C94830C0C94830C0C94830C0C94830C24
:100020000C94830C0C94830C0C94D0BE0C944ABD9D
:100030000C94830C0C94830C0C94830C0C94830C04
:100040000C94830C0C946B630C94830C0C94830CB5
:100050000C94830C0C94830C0C94206C0C9413BCA7
:100060000C94830C0C94830C0C94830C0C94830CD4
:100070000C94830C0C94830C0C94830C0C94830CC4
:100080000C94830C0C94830C0C94830C0C94830CB4
:100090000C94830C0C94830C084AD73B3BCE016E26
:1000A00084BCBFFDC12F3D6C74319ABD56833DDACF
:1000B0003D00C77F11BED9E4BB4C3E916BAAAABEDE
:1000C000000000803F05A84CCDB2D44EB93836A907
:1000D000020C50B9918688083CA6AAAA2ABE000044
:1000E00000803F4D383420582059205A2045006563
:1000F00063686F3A0043616E6E6F7420656E74655D
:1001000072207375626469723A20004D3234004D7A
:100110003233202573006175746F25692E670045A1
:1001200072726F723A006572726F722077726974C0
:10013000696E6720746F2066696C65004E6F74206D
:100140005344207072696E74696E67002F005344C7
:10015000207072696E74696E672062797465200020
:100160002E0044656C6574696F6E206661696C650C
:10017000642C2046696C653A200046696C652064F1
:10018000656C657465643A002E006F70656E20665C
:1001900061696C65642C2046696C653A2000577271
:1001A0006974696E6720746F2066696C653A200017
:1001B0002E006F70656E206661696C65642C204648
:1001C000696C653A20002E006F70656E206661696B
:1001D0006C65642C2046696C653A200046696C6544
:1001E0002073656C6563746564002053697A653AB1
:1001F000200046696C65206F70656E65643A20006A
:100200002E006F70656E206661696C65642C2046F7
:10021000696C653A200053442063617264206F6BFF
:10022000006F70656E526F6F74206661696C6564F3
:1002300000766F6C756D652E696E697420666169F4
:100240006C656400534420696E6974206661696C52
:10025000006563686F3A0048617264636F64656447
:100260002044656661756C742053657474696E67AB
:1002700073204C6F61646564006563686F3A004584
:1002800072726F723A0053544F505045442E200002
:100290005072696E7465722073746F70706564203B
:1002A00064756520746F206572726F72732E2046BC
:1002B000697820746865206572726F7220616E645F
:1002C00020757365204D39393920746F207265733C
:1002D000746172742E202854656D70657261747536
:1002E00072652069732072657365742E205365747E
:1002F000206974206166746572207265737461721E
:1003000074696E6729004B494C4C45442E200050BF
:1003100072696E7465722068616C7465642E206BFE
:10032000696C6C28292063616C6C656421006F6BBB
:1003300000526573656E643A20002200556E6B6E44
:100340006F776E20636F6D6D616E643A2022007A64
:100350005F6D696E3A2000795F6D696E3A200078B2
:100360005F6D696E3A20005A3A00593A0020436F97
:10037000756E7420583A2000453A005A3A00593AAE
:1003800000583A004649524D574152455F4E414D43
:10039000453A4D61726C696E2056313B2053707244
:1003A000696E7465722F6772626C206D6173687517
:1003B0007020666F722067656E36204649524D5731
:1003C0004152455F55524C3A687474703A2F2F77FA
:1003D00077772E6D656E64656C2D70617274732E07
:1003E000636F6D2050524F544F434F4C5F564552F0
:1003F00053494F4E3A312E30204D414348494E45E6
:100400005F545950453A4D656E64656C20455854AB
:1004100052554445525F434F554E543A310A0042BB
:10042000656420646F6E652E0020423A0020453AD4
:1004300000543A004265642048656174696E672E15
:100440000048656174696E6720646F6E652E0020D8
:10045000573A0020453A00543A0048656174696E85
:10046000672E2E2E002042403A0020403A00202FD6
:100470000020423A00202F006F6B20543A0025697B
:10048000206D696E2C2025692073656300456E64BC
:100490002066696C65206C69737400426567696EDB
:1004A0002066696C65206C697374004E6F206D6FF7
:1004B00076652E00526573756D696E67207072697E
:1004C0006E74005761697420666F7220757365726F
:1004D0002E2E2E00536C6565702E2E2E00000032DD
:1004E0004300003943000096420000A0400000A0F5
:1004F000400000803FFFFFFF000000000000000000
:1005000000000000000000000000000000000000EB
:1005100000003243000039430000964225692068FC
:100520006F757273202569206D696E75746573002F
:10053000446F6E65207072696E74696E67206669BB
:100540006C650053544F505045442E200050726942
:100550006E7465722073746F707065642064756565
:1005600020746F206572726F72732E204669782036
:10057000746865206572726F7220616E6420757395
:1005800065204D39393920746F207265737461723A
:10059000742E202854656D706572617475726520C3
:1005A00069732072657365742E20536574206974B5
:1005B0002061667465722072657374617274696E0D
:1005C0006729006F6B004E6F204C696E65204E7579
:1005D0006D626572207769746820636865636B7308
:1005E000756D2C204C617374204C696E653A200047
:1005F0004E6F20436865636B73756D20776974680F
:10060000206C696E65206E756D6265722C204C6180
:100610007374204C696E653A2000636865636B7380
:10062000756D206D69736D617463682C204C617306
:1006300074204C696E653A20004C696E65204E75D9
:100640006D626572206973206E6F74204C617374E3
:10065000204C696E65204E756D6265722B312C20C1
:100660004C617374204C696E653A20004D31313015
:1006700000446F6E6520736176696E672066696CF1
:10068000652E006F6B004D3239002020506C616E7A
:100690006E657242756666657242797465733A205A
:1006A000002046726565204D656D6F72793A2000B5
:1006B0004D6179203133203230313300436F6D701A
:1006C000696C65643A2000286E6F6E652C20646545
:1006D0006661756C7420636F6E6669672900207CA3
:1006E00020417574686F723A20004D617920313372
:1006F00020323031332032303A35323A333700202D
:100700004C61737420557064617465643A200031E3
:100710002E302E30004D61726C696E200020536FB8
:100720006674776172652052657365740020576145
:10073000746368646F672052657365740020427249
:100740006F776E206F757420526573657400204555
:10075000787465726E616C20526573657400506FB9
:100760007765725570007374617274002200656E53
:10077000717565696E672022002200656E7175656E
:10078000696E672022006563686F3A0020636F6CB2
:100790006420657874727573696F6E207072657607
:1007A000656E746564007C3C3E5E2B3D3F2F5B5D57
:1007B0003B2C2A225C0045313A200045303A20008B
:1007C0005A3A2000593A2000583A20004D53312C13
:1007D0004D53322050696E730A0024F404D9201B53
:1007E000C40C5C0E9804C4095F0265077101F4052E
:1007F000F900FB04B30048048700C10369005803F3
:10080000550003034500BE023A0084023100530242
:100810002A002902250004022000E4011C00C8016E
:100820001900AF0117009801140084011300710131
:1008300010006101100051010E0043010D0036014E
:100840000B002B010B0020010B00150109000C010E
:10085000090003010800FB000800F3000800EB009A
:100860000700E4000600DE000600D8000600D20003
:100870000600CC000500C7000500C2000500BD0051
:100880000400B9000400B5000400B1000400AD008C
:100890000400A9000400A5000300A20003009F00BB
:1008A00004009B00030098000300950002009300E1
:1008B0000300900003008D0002008B0003008800FD
:1008C00002008600020084000300810002007F0015
:1008D00002007D0002007B00020079000200770028
:1008E0000100760002007400020072000100710035
:1008F00002006F0002006D0001006C0002006A003F
:100900000100690002006700010066000100650047
:10091000010064000200620001006100010060004B
:1009200001005F0002005D0001005C0001005B004F
:1009300001005A0001005900010058000100570051
:100940000100560001005500010054000100530051
:10095000000053000100520001005100010050004E
:1009600001004F0001004E0000004E0001004D004C
:1009700001004C0001004B0000004B0001004A0048
:100980000100490001004800000048000100470044
:10099000010046000000460001004500000045003F
:1009A0000100440001004300000043000100420038
:1009B0000000420001004100000041000100400031
:1009C00001003F0000003F0001003E0000003E002B
:1009D00001003D0000003D0001003C0000003C0023
:1009E00000003C0001003B0000003B0001003A0019
:1009F00000003A0001003900000039000100380011
:100A00000000380000003800010037000000370007
:100A100001003600000036000000360001003500FD
:100A200000003500000035000100340000003400F3
:100A300000003400010033000000330000003300E8
:100A400001003200000032000000320001003100DD
:100A500000003100000031000100300000003000D3
:100A60000000300001002F0000002F0000002F00C8
:100A700000002F0001002E0000002E0000002E00BC
:100A800001002D0000002D0000002D0000002D00B1
:100A900001002C0000002C0000002C0000002C00A5
:100AA00001002B0000002B0000002B0000002B0099
:100AB00001002A0000002A0000002A0000002A008D
:100AC0000100290000002900000029000000290081
:100AD0000000290001002800000028000000280074
:100AE0000000280000002800010027000000270067
:100AF000000027000000270000002700010026005A
:100B0000000026000000260000002600000026004D
:100B10000100250000002500000025000000250040
:100B20000000250000002500010024000000240032
:100B30000000240000002400000024000100230025
:100B40000000230000002300000023000000230019
:100B5000000023000000230001002200000022000A
:100B600000002200000022000000220000002200FD
:100B700001002100000021000000210000002100F0
:100B800000002100000021000000210001002000E1
:100B900000002000000020000000200000002000D5
:100BA00000002000000020000000200001001F00C5
:100BB00000001F0000001F0000001F0000001F00B9
:100BC00000001F0000001F0001001E0000001E00AA
:100BD00000001E0000001E00000024F4D43050C3AA
:100BE0008E20C2A24017828B7011127A910D816CF7
:100BF000D90AA861E108C7586607615143061E4B30
:100C00005D05C145A7041A411104093D98037139D6
:100C100031034036DB0265339102D4305402802E1A
:100C20001D02632CEE01752AC501B028A001102712
:100C300081018F2564012B244B01E0223401AC217A
:100C40001F018D200D01801FFC00841EED00971DEB
:100C5000DF00B81CD200E61BC600201BBC00641AD3
:100C6000B200B219A8000A19A0006A189900D11799
:100C7000910040178B00B516840031167E00B31525
:100C800079003A157300C7146F0058146A00EE1308
:100C900066008813630025135E00C7125B006C12A8
:100CA000570015125400C111510070114F0021114D
:100CB0004B00D61049008D1047004610440002102A
:100CC0004200C00F4000800F3E00420F3C00060F64
:100CD0003B00CB0E3800930E37005C0E3500270E1C
:100CE0003400F30D3200C10D3100900D3000600D65
:100CF0002E00320D2D00050D2C00D90C2B00AE0C52
:100D00002900850C29005C0C2700350C27000E0CEF
:100D10002600E80B2400C40B2400A00B23007D0B4D
:100D200023005A0B2100390B2100180B2000F80A70
:100D30001F00D90A1E00BB0A1E009D0A1D00800A62
:100D40001D00630A1C00470A1B002C0A1B00110A25
:100D50001A00F7091A00DD091900C4091900AB09C6
:100D60001900920917007B091800630917004C0944
:100D7000160036091600200916000A091500F508A4
:100D80001500E0081400CC081400B8081400A408EA
:100D90001400900813007D0812006B081300580817
:100DA000120046081200340811002308110012082E
:100DB000110001081100F0071000E0071000D00733
:100DC0001000C0071000B0070F00A1071000910726
:100DD0000E0083070F0074070F0065070E0057070A
:100DE0000E0049070E003B070D002E070E002007DE
:100DF0000D0013070D0006070D00F9060C00ED06A7
:100E00000D00E0060C00D4060C00C8060C00BC0661
:100E10000C00B0060C00A4060B0099060C008D0611
:100E20000B0082060B0077060B006C060B006106B8
:100E30000A0057060B004C060A0042060A00380654
:100E40000A002E060A0024060A001A060A001006E6
:100E5000090007060A00FD050900F4050900EB0575
:100E60000900E2050900D9050900D0050900C705F8
:100E70000900BE050900B5050800AD050800A50577
:100E800009009C050800940508008C0508008405ED
:100E900008007C050800740508006C05070065055E
:100EA00008005D050700560508004E0507004705C8
:100EB00007004005080038050700310507002A052E
:100EC0000700230507001C050600160507000F058F
:100ED00007000805060002050700FB040600F504EC
:100EE0000700EE040600E8040600E2040700DB0445
:100EF0000600D5040600CF040600C9040600C3049A
:100F00000600BD040600B7040600B1040500AC04E9
:100F10000600A6040600A00405009B040600950434
:100F20000500900406008A0405008504050080047D
:100F300006007A04050075040500700405006B04C2
:100F4000050066040500610405005C040500570403
:100F50000500520405004D04050048040500430443
:100F600005003E0404003A04050035040500300481
:100F700004002C04050027040400230405001E04BB
:100F800004001A04040016040500110404000D04F2
:100F90000400090405000404040000040400FC0328
:100FA0000400F8030400F4030400F0030400EC035D
:100FB0000400E8030400E4030400E0030400DC038D
:100FC0000400D8030400D4030400D0030400CC03BD
:100FD0000400C8030300C50303006563686F3A009B
:100FE000656E6473746F7073206869743A205A0078
:100FF000205A3A00656E6473746F70732068697468
:101000003A20590020593A00656E6473746F70730A
:10101000206869743A20580020583A00656E64735D
:10102000746F7073206869743A20004572726F7231
:101030003A004572723A204D415854454D50204275
:1010400045440054656D7065726174757265206801
:101050006561746564206265642073776974636890
:101060006564206F66662E204D415854454D5020D2
:101070007472696767657265642021210045727228
:101080003A204D494E54454D50003A2045787472EF
:1010900075646572207377697463686564206F6630
:1010A000662E204D494E54454D5020747269676735
:1010B000657265642021004572723A204D41585492
:1010C000454D50003A2045787472756465722073FE
:1010D00077697463686564206F66662E204D415899
:1010E00054454D50207472696767657265642021AC
:1010F00000202D20496E76616C69642065787472D9
:1011000075646572206E756D6265722021007001D4
:101110002C0190012701B0012201C0011D01F00145
:1011200018011002130130020E0160020901900241
:101130000401C002FF000003FA004003F500800331
:10114000F000D003EB002004E6007004E100E004AE
:10115000DC004005D700C005D2004006CD00D00617
:10116000C8008007C3003008BE00F008B900C009FD
:10117000B400B00AAF00B00BAA00D00CA500000E5E
:10118000A000500F9B00C010960050129100001458
:101190008C00C0158700B0178200B0197D00D01BED
:1011A0007800001E730040206E0090226900F02439
:1011B000640040275F0090295A00E02B5500102E54
:1011C000500020304B0010324600E0334100903593
:1011D0003C001037370070383200A0392D00B03A8B
:1011E0002800A03B2300603C1E00103D1900903DEC
:1011F0001400103E0F00703E0A00C03E0500003F84
:101200000000504944204175746F74756E65206606
:10121000696E6973686564202120506C6163652084
:10122000746865204B702C204B6920616E64204BE4
:101230006420636F6E7374616E747320696E2074C2
:10124000686520636F6E66696775726174696F6E39
:101250002E6800504944204175746F74756E652086
:101260006661696C6564212074696D656F757400D1
:1012700020403A006F6B20543A006F6B20423A00D6
:10128000504944204175746F74756E6520666169BC
:101290006C6564212054656D70657261747572654A
:1012A00020746F206869676800204B643A20002032
:1012B0004B693A2000204B703A200020436C617348
:1012C00069632050494420002054753A2000204B87
:1012D000753A2000206D61783A2000206D696E3AE1
:1012E000200020643A200020626961733A20004D9A
:1012F000323100496E69742E2053442D436172646B
:10130000004E6F2043617264004D323100436861CA
:101310006E67652053442D43617264005072696E9C
:10132000742066726F6D2053440053746F702050A8
:1013300072696E7400526573756D65205072696EC6
:1013400074005061757365205072696E7400436F4C
:101350006E74726F6C0050726570617265005475C6
:101360006E6500496E666F2073637265656E000579
:101370002E2E000452656672657368004D61696EB9
:10138000004D3234004D3233202573004D38342067
:10139000582059205A204500526573746F72652099
:1013A0004661696C73616665004D6F74696F6E00AC
:1013B00054656D7065726174757265004D61696E1A
:1013C000004573746570732F6D6D0045737465709F
:1013D000732F6D6D005A73746570732F6D6D005AA5
:1013E00073746570732F6D6D005973746570732F0E
:1013F0006D6D005973746570732F6D6D0058737443
:101400006570732F6D6D005873746570732F6D6DFB
:1014100000412D7265747261637400412D726574B0
:101420007261637400416D6178206500416D61787F
:10143000206500416D6178207A00416D6178207AE5
:1014400000416D6178207900416D6178207900411B
:101450006D6178207800416D617820780056547273
:101460006176206D696E005654726176206D696EEA
:1014700000566D696E00566D696E00566D6178207C
:101480006500566D6178206500566D6178207A00A0
:10149000566D6178207A00566D6178207900566D1E
:1014A0006178207900566D6178207800566D6178FA
:1014B00020780056652D6A65726B0056652D6A6549
:1014C000726B00567A2D6A65726B00567A2D6A65CA
:1014D000726B005678792D6A65726B005678792D9B
:1014E0006A65726B00416363656C00416363656CA0
:1014F00000436F6E74726F6C005072656865617442
:101500002041425320436F6E6600507265686561EA
:101510007420504C4120436F6E66005049442D4367
:10152000005049442D43005049442D440050494443
:101530002D44005049442D49005049442D49005044
:1015400049442D50005049442D500020022046614E
:1015500063740020022046616374002002204D6104
:1015600078002002204D6178002002204D696E0035
:101570002002204D696E004F6666004F6E20004FBE
:101580006666004F6E20004175746F74656D700063
:1015900046616E2073706565640046616E207370ED
:1015A0006565640042656400426564004E6F7A7A46
:1015B0006C65004E6F7A7A6C6500436F6E74726F63
:1015C0006C0042656400426564004E6F7A7A6C6517
:1015D000004E6F7A7A6C650046616E2073706565A7
:1015E000640046616E2073706565640054656D70BB
:1015F00065726174757265004265640042656400DD
:101600004E6F7A7A6C65004E6F7A7A6C650046612F
:101610006E2073706565640046616E207370656549
:10162000640054656D7065726174757265004D6F0C
:1016300076652041786973004D3130342053300A8B
:101640004D31343020533000436F6F6C646F776ED0
:1016500000507265686561742041425300507265A4
:101660006865617420504C41004732380041757400
:101670006F20486F6D65004D3834004469736162B6
:101680006C65205374657070657273004D61696E8E
:10169000004D6F766520302E316D6D004D6F766593
:1016A00020316D6D004D6F76652031306D6D0050CD
:1016B0007265706172650045787472756465720058
:1016C0004D6F7665205A004D6F76652059004D6F3D
:1016D00076652058004D6F76652041786973004526
:1016E00078747275646572005A0059005800466C2F
:1016F0006F7700466C6F770046616E20737065658A
:10170000640046616E207370656564004265640024
:10171000426564004E6F7A7A6C65004E6F7A7A6C1F
:1017200065005370656564005370656564004D61C4
:10173000696E00012902290429082910292029405D
:10174000298029012C022C012602260426082610B5
:1017500026202640268026402C802C0123022304AC
:101760002308231023202340238023012002200468
:101770002008201020202040208020102C202C0128
:101780002F022F042F082F102F202F402F802F7E65
:10179000FE7EFD7EFB7EF77EEF7EDF7EBF7E7F00DE
:1017A000010000D3171200020000E51743000300F8
:1017B00000281804010309042C1818020309044620
:1017C0001816030309045E180C0001C102018036DB
:1017D0000181361201000202000020C016830400BD
:1017E000010102030109024300020100C0320904A1
:1017F000000001020201000524001001052401007F
:1018000001042402060524060001070582030800DE
:101810004009040100020A0000000705030240001D
:101820000007058402400000040309041803540063
:10183000650065006E007300790064007500690042
:101840006E006F0000001603550053004200200098
:10185000530065007200690061006C0000000C0319
:10186000310032003300340035000000494E464953
:101870004E4954594E414ECDCCCC3D0AD7233C174E
:10188000B7D13877CC2B329595E6241FB14F0A009B
:101890000020410000C84200401C4620BCBE4CCA8B
:1018A0001B0E5AAEC59D7400B11F9AB381C2AC1F06
:1018B00011241FBECFEFD0E2DEBFCDBF13E0A0E00A
:1018C000B1E0E8EBF0E901E00BBF02C007900D9238
:1018D000AA36B107D9F71BBE1EE0AAE6B3E001C0E5
:1018E0001D92A23EB107E1F718E1CEEAD8E104C0AB
:1018F0002297FE010E9402C8C83AD107C9F70E9488
:101900004EBF0C9450C80C940000A0E0B0E0EBE88F
:10191000FCE00C941FC8EC015B016115710519F026
:10192000FB0191838083F9908F2D90E00E9406C87F
:10193000892BC9F7FDE2FF1621F4F990EE24E39418
:1019400005C02BE2F21609F4F990EE248E01015045
:101950001040C8016CE678E143E050E072D2892B78
:10196000F9F48E010E5F1F4FC8016FE678E145E084
:1019700050E067D2892B19F48E01095F1F4FA11423
:10198000B10419F0F50111830083E0FC04C070E09C
:1019900090E080E813C070E090E080E86FEF07C14E
:1019A000C80164E778E143E050E04BD2892B69F449
:1019B000A114B10429F470E090E080EC6FE7F7C067
:1019C0002296F501D183C083F6CF8824992440E084
:1019D00050E060E070E0EF2DE053EA30A0F5F2E077
:1019E000EF2A8E2D90E09C0128703070E2FE06C038
:1019F000232B79F50894811C911C2BC0232B19F003
:101A0000089481089108DB01CA0112E0880F991F30
:101A1000AA1FBB1F1A95D1F7480F591F6A1F7B1FBA
:101A2000440F551F661F771F4E0F511D611D711DFD
:101A3000483929E9520729E9620729E1720748F084
:101A400084E0E82A06C0EE3F31F4E3FC39C098E0B8
:101A5000E92AF990C0CFE53311F0E53189F52991F4
:101A60002D3219F4E0E1EE2A05C02B3219F081E0A5
:101A700090E003C0299182E090E0E22FE053EA3049
:101A800018F0C81BD90B1CC020E030E0FCE0203867
:101A90003F075CF4C901880F991F880F991F280F11
:101AA000391F220F331F2E0F311DE991E053EA3009
:101AB00068F3E4FE03C0309521953F4F820E931EDC
:101AC000CE2CDD24E1FE07C0A114B10421F0219742
:101AD000F501D183C083CB01BA010E946BC47B01A5
:101AE0008C01F3E0CF22DD2423E0C216D10421F4DF
:101AF00017FB109517F9109557016801C801B70138
:101B000020E030E040E050E00E94CBC3882309F49D
:101B10004AC097FE0DC02BE8E22E28E1F22E9094E9
:101B2000819491089394C0E2D0E000E010E012C0EC
:101B300093EAE92E98E1F92EF6CFF7012591359138
:101B400045915491C601B5010E94ABC65B016C0181
:101B50008C1A9D0A8C169D0684F7D595C7950F5F44
:101B60001F4F0630110529F08CEF9FEFE80EF91E8C
:101B7000F1CFC501D6017C018D018C2D880F8D2DF3
:101B8000881F8F3F51F0C601B50120E030E040E0F2
:101B900050E00E94CBC3882331F482E290E090931E
:101BA000E10E8093E00E7E2D9F2D802F612F272F39
:101BB000392F482F562FB901CA01CDB7DEB7ECE057
:101BC0000C943BC82F923F925F926F927F928F92BC
:101BD0009F92AF92BF92CF92DF92EF92FF920F93BC
:101BE0001F93CF93DF938C011B01EA0161157105EF
:101BF00019F0FB0191838083209749F0CE01029771
:101C0000839728F020E030E040E050E0F6C0F80193
:101C1000A1908F018A2D90E00E9406C8892BB9F708
:101C2000FDE2AF1631F4F801A1908F0155245394D1
:101C300007C0FBE2AF1619F4F801A1908F015524FB
:101C4000209719F0C031D105C1F4F0E3AF1679F453
:101C5000F8018081883711F0883549F4F801A180B6
:101C60000E5F1F4FF2E05F2AC0E1D0E006C0209770
:101C700021F480E3A816E9F427C0C830D10531F17A
:101C8000C930D10524F4C230D10531F50CC0CA30B9
:101C9000D10589F0C031D105F9F4C12CD12CE12C4A
:101CA000B8E0FB2E28C0C12CD12CE12CA0E4FA2EE8
:101CB00022C0CAE0D0E0FCECCF2EFCECDF2EFCEC26
:101CC000EF2EFCE0FF2E17C0C8E0D0E0C12CD12CD5
:101CD000E12CE0E1FE2E0FC09E01442737FD409528
:101CE000542F60E070E080E090E80E94C3C7C90113
:101CF000DA016C017D0120E030E040E050E060E07E
:101D00003E01882477FC8094982C70EDB72EBA0C95
:101D1000E9E0EB1570F48A2D81548A3118F499ECBE
:101D2000B92E06C08A2D81568A3150F589EAB82E1F
:101D3000BA0C8B2D90E08C179D0714F56F3FE1F0E6
:101D4000C216D306E406F506B0F0CA01B901A40133
:101D500093010E947DC79B01AC012B0D311D411DDC
:101D6000511D2130F0E03F07F0E04F07F0E85F073A
:101D700010F461E001C06FEFF801A1908F01C5CFB1
:101D80002114310481F0662331F001501040F1013B
:101D90001183008308C051FE1AC002501040F101A7
:101DA0001183008314C067FF12C050FC05C02FEFE1
:101DB0003FEF4FEF5FE704C020E030E040E050E845
:101DC00082E290E09093E10E8093E00E16C050FE08
:101DD00008C050954095309521953F4F4F4F5F4F2C
:101DE0000CC057FF0AC082E290E09093E10E80930E
:101DF000E00E2FEF3FEF4FEF5FE7B901CA01DF9130
:101E0000CF911F910F91FF90EF90DF90CF90BF90F7
:101E1000AF909F908F907F906F905F903F902F90AA
:101E20000895FB01DC0105900D920020E1F7089573
:101E3000FC0105900020E9F7809590958E0F9F1F7B
:101E40000895FB01DC014150504088F08D918134B0
:101E50001CF08B350CF4805E659161341CF06B35A1
:101E60000CF4605E861B611171F3990B0895881B59
:101E7000FCCFFB01DC014150504048F005900D9231
:101E80000020C9F701C01D9241505040E0F708956D
:101E9000FB0155915523A9F0BF01DC014D91451778
:101EA0004111E1F759F4CD010590002049F04D9121
:101EB00040154111C9F3FB014111EFCF81E090E0E2
:101EC00001970895FB01DC0104C08D9101908019F8
:101ED00021F441505040C8F7881B990B0895FB012D
:101EE000DC0102C001900D9241505040D8F7089596
:101EF000FB01DC010D900020E9F7119701900D9294
:101F00000020E1F70895FC018191861721F08823D4
:101F1000D9F7992708953197CF010895FB01DC0186
:101F200001900D920020E1F70895FB01DC01415082
:101F3000504030F08D910190801919F40020B9F7CC
:101F4000881B990B0895FB01DC014150504048F07B
:101F500001900D920020C9F701C01D9241505040E0
:101F6000E0F70895AEE0B0E0E8EBFFE00C9427C89E
:101F70000D891E898EE08C831A8309838FEF9FE77A
:101F80009E838D839E01275E3F4FCE0101966F8910
:101F9000788DA9010AD02F813885020F131FF8010F
:101FA00010822E96E4E00C9443C8ABE0B0E0EBED79
:101FB000FFE00C9419C83C012B015A01FC01178267
:101FC0001682838181FD03C06FEF7FEFB9C19AE074
:101FD000892E1E010894211C311CF3012381F2017A
:101FE00023FD859123FF81912F01882309F4A5C149
:101FF000853239F423FD859123FF81912F018532AC
:1020000021F490E0B301B7D1E8CF982FFF24EE245C
:102010009924FFE1FF15D0F09B3269F09C3228F43F
:10202000903259F0933291F40EC09D3249F09033C2
:1020300069F441E024C052E0F52A84E0F82A28C07F
:1020400098E0F92A25C0E0E1FE2A22C0F7FC29C069
:10205000892F80538A3070F4F6FE05C0989C902C2E
:102060001124980E15C0E89CE02C1124E80EF0E233
:10207000FF2A0EC09E3229F4F6FC5FC140E4F42A28
:1020800007C09C3619F450E8F52A02C0983649F486
:10209000F20123FD959123FF91912F01992309F0DE
:1020A000B8CF892F8554833018F08052833038F4AC
:1020B00044E050E0A40EB51E5FE359830FC0933691
:1020C00031F0933779F0933509F052C01FC0F50114
:1020D0008081898342E050E0A40EB51E610101E0D9
:1020E00010E011C0F501C080D180F6FC03C06FEF95
:1020F0007FEF02C0692D70E042E050E0A40EB51EF3
:10210000C6012ED18C015FE7F52213C0F501C08016
:10211000D180F6FC03C06FEF7FEF02C0692D70E045
:1021200042E050E0A40EB51EC6010FD18C0150E86C
:10213000F52AF3FE06C018C080E290E0B3011BD17F
:10214000EA948E2D90E008171907B0F30DC0F60140
:10215000F7FC8591F7FE81916F0190E0B3010BD1FF
:10216000E110EA94015010400115110581F7E2C019
:10217000943611F0993661F5F7FE08C0F50120811B
:1021800031814281538184E090E00AC0F501808171
:1021900091819C01442737FD4095542F82E090E0C7
:1021A000A80EB91E9FE6F92257FF09C05095409529
:1021B000309521953F4F4F4F5F4FE0E8FE2ACA010F
:1021C000B901A1012AE030E002D1D82ED2183FC0D7
:1021D000953729F41F2D1F7E2AE030E01DC01F2DEA
:1021E000197F9F3661F0903720F4983509F0A5C02B
:1021F0000FC0903739F0983709F09FC004C028E02D
:1022000030E00AC0106114FD146020E130E004C029
:1022100014FD166020E132E017FF08C0F50160816F
:1022200071818281938144E050E008C0F501808192
:102230009181BC0180E090E042E050E0A40EB51E28
:10224000A101C5D0D82ED2188FE7F82EF122F6FEC4
:102250000BC05EEFF522D91438F4F4FE07C0F2FC8F
:1022600005C08FEEF82202C01D2D01C0192DF4FE0D
:102270000DC0FE01ED0DF11D8081803319F499EE42
:10228000F92208C01F5FF2FE05C003C08F2D8678BB
:1022900009F01F5F0F2DF3FC13C0F0FE0EC01E15DA
:1022A00010F09D2C0AC09D2C9E0C911A1E2D05C06D
:1022B00080E290E0B3015FD01F5F1E15C8F304C039
:1022C0001E1510F4E11A01C0EE2404FF0EC080E3D5
:1022D00090E0B30150D002FF1BC001FD03C088E7AE
:1022E00090E00EC088E590E00BC0802F867881F0EA
:1022F00001FF02C08BE201C080E2F7FC8DE290E0BA
:10230000B30139D005C080E390E0B30134D09A9492
:10231000D914C8F3DA94F101ED0DF11D808190E03C
:10232000B30129D0DD20B1F705C080E290E0B30110
:1023300022D0EA94EE20C9F750CEF301668177816E
:10234000CB012B96E2E10C9435C8FC01059061505D
:1023500070400110D8F7809590958E0F9F1F0895BB
:10236000FC016150704001900110D8F78095909564
:102370008E0F9F1F08950F931F93CF93DF938C01B0
:10238000EB018B8181FF1BC082FF0DC02E813F813D
:102390008C819D812817390764F4E881F9810193C4
:1023A000F983E88306C0E885F985802F0995892B94
:1023B00031F48E819F8101969F838E8302C00FEF3F
:1023C0001FEFC801DF91CF911F910F910895FA017E
:1023D000AA27283051F1203181F1E8946F936E7F64
:1023E0006E5F7F4F8F4F9F4FAF4FB1E03ED0B4E055
:1023F0003CD0670F781F891F9A1FA11D680F791F96
:102400008A1F911DA11D6A0F711D811D911DA11DA6
:1024100020D009F468943F912AE0269F11243019B6
:10242000305D3193DEF6CF010895462F4770405D51
:102430004193B3E00FD0C9F7F6CF462F4F70405D00
:102440004A3318F0495D31FD4052419302D0A9F75B
:10245000EACFB4E0A6959795879577956795BA9555
:10246000C9F700976105710508959B01AC010A2E1B
:1024700006945795479537952795BA95C9F7620FF2
:10248000731F841F951FA01D0895DF93CF930F9294
:10249000CDB7DEB7FC016983A081B18112962D9181
:1024A0003C911397BE016F5F7F4F41E050E0F9010F
:1024B00009950F90CF91DF910895FC0112AA15AAFA
:1024C00011AA22E033E030AB27A7EE5AFF4F10826B
:1024D000339610823497108232932293B1961082F1
:1024E000339610823497108232932293B1961082E1
:1024F0003396108234971082329322937F9689E12B
:10250000808333961082789610823A9610823396A2
:10251000108234971082329322937E961082118219
:102520001282138238961082118212821382E25F25
:10253000F0401282138210821182EA50FF4F81E034
:102540008083E65FF04016A615A60FB6F89480913A
:10255000CE0E9091CF0EA091D00EB091D10E0FBEA5
:10256000E251FF4F88579C4EAF4FBF4F80839183FE
:10257000A283B3830895FC01128213820895FC01A3
:102580008381882311F081E082830895FC01828198
:10259000811112820895CF93DF93DC01AB5ABF4FB4
:1025A0008C91A555B0408250823020F1ED01CE5A79
:1025B000DF4FFD01E059FF4F8BE1019009928150FF
:1025C000E1F7FD01EF5AFF4FA159BF4F8C91AF5674
:1025D000B0408083ED01C059DF4FFD01E257FF4F4E
:1025E0008BE1019009928150E1F7A357BF4F8C9185
:1025F0005E978C93DF91CF910895FC0182E093E088
:10260000918380838681882321F0CF0103960C94E7
:10261000D25508950F931F93CF93DF938C010E949F
:1026200057630E943463C80181539F4F0E94D25563
:10263000F801128283EE90E00E94F13A8091DB066D
:10264000882301F11092DB0680919504C82FD0E019
:10265000CC0FDD1FC45ED14F68817981882777FD5B
:102660008095982F0E946DC420915302309154029E
:1026700040915502509156020E94D9C5181614F483
:1026800019821882DF91CF911F910F910895CF93F6
:10269000DF93DB010D900020E9F71197A61BB70B24
:1026A000EC01E881F9810280F381E02DAD0109950B
:1026B000DF91CF910895CF92DF92EF92FF920F9327
:1026C0001F93DF93CF93CDB7DEB76E970FB6F89415
:1026D000DEBF0FBECDBF8C016B010B5A1F4FD8015F
:1026E0008C9105551040882321F42FE2E22EF12C25
:1026F00003C09FE4E92EF12CE00EF11E82E093E08E
:102700009A8389831B821F821C82B7016D5F7F4F72
:10271000CE010496A60121E00E94BF5C882329F522
:10272000EFEEF0E064918F0107C086ED9EE0ADDE34
:102730000F5F1F4FF80164916623B9F7E5EFF0E0F2
:1027400064918F0107C086ED9EE09FDE0F5F1F4FF3
:10275000F80164916623B9F786ED9EE0B60197DF34
:1027600086ED9EE06AE091DE36C0D801A257BF4FE9
:10277000F801E059FF4F8BE101900D928150E1F794
:10278000F801E357FF4F01591F4FD8018C910F56A5
:1027900010408083D801A059BF4FF70133968BE1D9
:1027A00001900D928150E1F701591F4FF70182818D
:1027B000D8018C930F561040D801AE5ABF4FFE017E
:1027C00034968BE101900D928150E1F70F5A1F4F23
:1027D0008B81F8018083CE0101960FDF6E960FB6D4
:1027E000F894DEBF0FBECDBFCF91DF911F910F9147
:1027F000FF90EF90DF90CF900895EF92FF920F93AC
:102800001F938C013FECE32EF12CE80EF91EC7015B
:102810000E948555C7010E94D255F801108211828D
:102820001F910F91FF90EF900895CF92DF92EF925A
:10283000FF920F931F93CF93DF937C016B01DB011A
:102840000D900020E9F78D0101501040061B170B79
:10285000EFECF0E0EE0EFF1ED7011C92E1E3FFEF7C
:10286000EE0EFF1ECB016EE470E04DDBEC01009735
:1028700031F4F8013197EC0DFD1D86010CC060E2CA
:1028800070E041DB8C010F5F1F4FCE016AE270E008
:102890003ADBFC0131978DE081838AE082831382E9
:1028A000C70184539F4FB8010E94B85D8FEC90E040
:1028B000E80EF91ED7018C918823F1F0EFE1F1E0E9
:1028C0006491EF0106C086ED9EE0DFDD2196FE01FA
:1028D00064916623C1F7E6E2F1E06491EF0106C07E
:1028E00086ED9EE0D2DD2196FE0164916623C1F75C
:1028F00086ED9EE06AE0C9DDDF91CF911F910F91D7
:10290000FF90EF90DF90CF900895EF92FF920F939A
:10291000CF93DF937C01FC018381882309F43DC0C0
:10292000EEE4F1E06491EF0106C086ED9EE0ADDDDE
:102930002196FE0164916623C1F782EF90E0E80ED4
:10294000F91EF70140815181628173818EE09FEF12
:10295000E80EF91E86ED9EE02AE000E00E949ABF94
:10296000ECE4F1E06491EF0106C086ED9EE08DDDC0
:102970002196FE0164916623C1F78AEE90E0E80E8D
:10298000F91EF701408151816281738186ED9EE0DD
:102990002AE000E00E949ABF0DC0ECE3F1E06491F0
:1029A000EF0106C086ED9EE070DD2196FE01649188
:1029B0006623C1F786ED9EE06AE067DDDF91CF9187
:1029C0000F91FF90EF9008952F923F924F925F9258
:1029D0006F927F928F929F92AF92BF92CF92DF922F
:1029E000EF92FF920F931F93DF93CF93CDB7DEB794
:1029F000AB970FB6F894DEBF0FBECDBF5C014B01A5
:102A0000FC018381882309F40BC1C50181539F4FC9
:102A10000E94D255F5011282198A1C8A188A82E016
:102A200093E09F878E875DE4C52ED12CCA0CDB1CFA
:102A30002FE230E0A20EB31EF601B182A08221ED9A
:102A40003FEFA20EB31EF40180818F3209F079C0EE
:102A5000C4016FE270E057DA7C010894E11CF11CBC
:102A60003E010894611C711C260141E1242E312C89
:102A70002C0E3D1E61C0C7016FE270E044DA6C01AC
:102A8000009709F46CC0E816F90608F068C08C01DC
:102A90000E191F09C301B701A80155DA060D171D4C
:102AA000F801108286ED9EE0B301F1DD86ED9EE037
:102AB0006AE0EBDCF201608171816115710519F446
:102AC00060E070E002C06D5F7F4FC101A30121E0B3
:102AD0000E94BF5C882329F5EAE8F1E064917F0158
:102AE00008C086ED9EE0D1DC0894E11CF11CF701E2
:102AF00064916623B1F786ED9EE0BE016F5F7F4F64
:102B0000C6DDE8E8F1E064917F0108C086ED9EE053
:102B1000BCDC0894E11CF11CF70164916623B1F759
:102B200078C02EE030E02C0F3D1FF201318320836E
:102B300076010894E11CF11CE114F10409F09BCF2B
:102B40000BC08FE490E0A80EB91EF601B182A082FE
:102B500021EB3FEFA20EB31ED82C092D02C0DE2CB4
:102B60000F2D8DE490E0A80EB91EF50180819181B2
:102B700023EB3FEFA20EB31E009719F480E090E024
:102B800001C003966D2D702F0E948B5D8823F1F09C
:102B9000EAE7F1E064917F0108C086ED9EE075DC14
:102BA0000894E11CF11CF70164916623B1F786EDEE
:102BB0009EE06D2D702F6BDD22EF30E0A20EB31E74
:102BC000F501108211821282138227C0E2E6F1E041
:102BD00064917F0108C086ED9EE057DC0894E11CFB
:102BE000F11CF70164916623B1F786ED9EE06D2D2F
:102BF000702F4DDDE0E6F1E064917F0108C086EDC5
:102C00009EE043DC0894E11CF11CF701649166230B
:102C1000B1F786ED9EE06AE038DCCE010E96EDDC81
:102C2000AB960FB6F894DEBF0FBECDBFCF91DF914C
:102C30001F910F91FF90EF90DF90CF90BF90AF90DA
:102C40009F908F907F906F905F904F903F902F90CC
:102C500008952F923F924F925F926F927F928F9240
:102C60009F92AF92BF92CF92DF92EF92FF920F931B
:102C70001F93DF93CF93CDB7DEB7AC970FB6F89421
:102C8000DEBF0FBECDBF5C014B014CA7FC018381B1
:102C9000882309F4A8C17FEC472E512C4A0C5B1CF9
:102CA000C2010E94D255F5011282198A1C8A188A23
:102CB00082E093E09F878E876DE4C62ED12CCA0CEC
:102CC000DB1C2FE230E0A20EB31EF601B182A0821F
:102CD00021ED3FEFA20EB31EF40180818F3209F087
:102CE00075C0C4016FE270E00ED97C010894E11C4C
:102CF000F11C3E010894611C711C160162C0C701E1
:102D00006FE270E000D96C01009709F46DC0E8161D
:102D1000F90608F069C08C010E191F09C301B7013B
:102D2000A80111D9060D171DF801108286ED9EE04D
:102D3000B301ADDC86ED9EE06AE0A7DBF1016081C6
:102D400071816115710519F460E070E002C06D5F7A
:102D50007F4FCE014196A30121E00E94BF5C8823F2
:102D600029F5E2E0F2E064917F0108C086ED9EE083
:102D70008CDB0894E11CF11CF70164916623B1F728
:102D800086ED9EE0BE016F5F7F4F81DCE0E0F2E008
:102D900064917F0108C086ED9EE077DB0894E11C1A
:102DA000F11CF70164916623B1F7F7C02EE030E023
:102DB0002C0F3D1FF1013183208376010894E11C23
:102DC000F11CE114F10409F09ACF0BC08FE490E0FC
:102DD000A80EB91EF601B182A08221EB3FEFA20E30
:102DE000B31ED82CC92C02C0DE2CCF2CF501E35B1E
:102DF000FF4F3CA5332309F49BC0608171816115AD
:102E0000710519F460E070E002C06D5F7F4FC20190
:102E10004D2D5C2D21E00E94BF5C882309F464C025
:102E2000A50146515F4F80EE90E0A80EB91EF50156
:102E300080819181A281B38120E23FEFA20EB31E77
:102E4000FA0180839183A283B383E2EFF1E064917E
:102E50007F0108C086ED9EE018DB0894E11CF11CA0
:102E6000F70164916623B1F786ED9EE06D2D7C2D10
:102E70000EDCEAEEF1E064917F0108C086ED9EE091
:102E800004DB0894E11CF11CF70164916623B1F79F
:102E90002AEE30E0A20EB31EF5014081518162811D
:102EA000738186ED9EE02AE000E00E949ABF86EDE5
:102EB0009EE06AE0EADA28E030E0A20EB31EF501F7
:102EC0001082118212821382ECEDF1E064917F0195
:102ED00008C086ED9EE0D9DA0894E11CF11CF701E8
:102EE00064916623B1F774C0E8ECF1E064917F016E
:102EF00008C086ED9EE0C9DA0894E11CF11CF701D8
:102F000064916623B1F786ED9EE06D2D7C2DBFDBCD
:102F1000E6ECF1E064917F0108C086ED9EE0B5DA51
:102F20000894E11CF11CF70164916623B1F735C0E8
:102F3000608171816115710519F460E070E002C073
:102F40006D5F7F4FC2014D2D5C2D26E50E94BF5C59
:102F5000882341F5E2EBF1E064917F0108C086ED42
:102F60009EE093DA0894E11CF11CF701649166235A
:102F7000B1F786ED9EE06D2D7C2D89DBE0EBF1E075
:102F800064917F0108C086ED9EE07FDA0894E11C21
:102F9000F11CF70164916623B1F786ED9EE06AE0CB
:102FA00074DA1EC081E0F5018083EEE9F1E06491FE
:102FB0007F0108C086ED9EE068DA0894E11CF11CF0
:102FC000F70164916623B1F786ED9EE0B4015FDB03
:102FD00086ED9EE06AE059DA8D2D9C2D0E94F6B3B5
:102FE000CE010E960ADBAC960FB6F894DEBF0FBE8C
:102FF000CDBFCF91DF911F910F91FF90EF90DF90A8
:10300000CF90BF90AF909F908F907F906F905F9088
:103010004F903F902F900895FC0181E08183CF0174
:1030200040E017CEEF92FF920F931F93CF93DF9361
:103030008C01FC01138285A9882321F0C801C29666
:103040000E94D255E9EAEE2EF12CE00EF11EC701E6
:1030500060E044E10E947C538823D9F4EFEEF0E075
:103060006491EF0106C086ED9EE00FDA2196FE0125
:1030700064916623C1F7E4E4F2E06491EF0106C0D5
:1030800086ED9EE002DA2196FE0164916623C1F787
:103090006BC0E801C255DF4FCE01B70141E00E948D
:1030A000495E882311F5CE01B70140E00E94495ED8
:1030B0008823D9F4EFE1F1E06491EF0106C086EDD9
:1030C0009EE0E3D92196FE0164916623C1F7E1E316
:1030D000F2E06491EF0106C086ED9EE0D6D921961C
:1030E000FE0164916623C1F73FC0C801C296BE01CC
:1030F0000E94C4588823D9F4EFE1F1E06491EF0114
:1031000006C086ED9EE0C1D92196FE01649166233A
:10311000C1F7E1E2F2E06491EF0106C086ED9EE0C6
:10312000B4D92196FE0164916623C1F71DC081E0E8
:10313000F8018383EFEEF0E06491EF0106C086EDC5
:103140009EE0A3D92196FE0164916623C1F7E6E1D2
:10315000F2E06491EF0106C086ED9EE096D92196DB
:10316000FE0164916623C1F786ED9EE06AE08DD989
:10317000D801AE5ABF4FF801F2968BE101900D9243
:103180008150E1F7F80181A90F5A1F4FF8018083A0
:1031900001551040C8018F96035B1F4FF8019183C2
:1031A0008083DF91CF911F910F91FF90EF90089551
:1031B0002F923F924F925F926F927F929F92AF9227
:1031C000BF92CF92DF92EF92FF920F931F93DF9304
:1031D000CF93CDB7DEB7CC55D0400FB6F894DEBF55
:1031E0000FBECDBF8C01662319F50A501F4FD801C1
:1031F0008C91065F1040882309F4E6C00FB6F8945E
:103200002091CE0E3091CF0E4091D00E5091D10E24
:103210000FBE02511F4FF80180819181A281B381BD
:103220000E5E104082179307A407B50708F4CCC0C0
:103230000A501F4FD8011C92065F1040F80183818D
:10324000882341F4C801EEDED80113968C918823BF
:1032500009F4BAC000D000D000D0EDB7FEB7319667
:103260006E010894C11CD11CADB7BEB71296DC929A
:10327000CE92119786E191E093838283D8019D9647
:103280008D919C919E97958384830E94B20F7601C5
:10329000EDB7FEB736960FB6F894FEBF0FBEEDBF82
:1032A00056010AC0D7018C91992787FD90950E94FD
:1032B0000EC8F70181937F01F50101900020E9F725
:1032C0003197EA19FB098E2D8C198E175CF382E376
:1032D000A82EB12CA00EB11EC50140E050E060E068
:1032E00070E00E94BB549924BDE3CB2ED12CCC0EB0
:1032F000DD1E2E010894411C511CAFE16A2E712C79
:103300006C0E7D1EFFE02F2EF1E03F2E43C0D70153
:103310008C9190E00E940EC8F70181937F01D60145
:103320000D900020E9F71197AC19BD098E2D8C196D
:103330008A176CF327968FAD27978E3759F1C60100
:10334000B20145E050E00E94950F009719F500D0BA
:1033500000D000D0EDB7FEB73196ADB7BEB712962C
:103360007C926E92119733822282558244820E940F
:10337000B20FEDB7FEB736960FB6F894FEBF0FBE8C
:10338000EDBFC3010E94683B8BE091E00E94F13ADF
:1033900099249394C501B60140E050E00E94E357A0
:1033A000181614F47601BBCF992041F48FEF9FEFEC
:1033B000D8019E969C938E939D9706C0F80185A593
:1033C00096A5019696A785A7C45ADF4F0FB6F89425
:1033D000DEBF0FBECDBFCF91DF911F910F91FF9048
:1033E000EF90DF90CF90BF90AF909F907F906F90C5
:1033F0005F904F903F902F9008952F923F924F9261
:103400005F926F927F928F929F92AF92BF92CF9274
:10341000DF92EF92FF920F931F93DF93CF93CDB77D
:10342000DEB7CD58D0400FB6F894DEBF0FBECDBF8B
:103430007C012B015A0183E090E0A80EB91EF70130
:103440007196C957DF4FF983E883C758D040C70149
:103450000496CC57DF4F99838883C458D040CA570D
:10346000DF4F1882C658D04044E6C42ED12CCC0E73
:10347000DD1EF6013B96C757DF4FF983E883C95835
:10348000D04037EF632E712C6E0C7F1C29EF822EFB
:10349000912C8E0C9F1C96E4292E312C2C0E3D1E57
:1034A000C1010396C557DF4F99838883CB58D0401D
:1034B000EFEEF0E09491C357DF4F9883CD58D040A2
:1034C0002DC1F6018385482F50E0BA0168717070F4
:1034D0006031710509F030C1F30120813181213063
:1034E000310509F429C12230310509F425C1F6015D
:1034F000DE0111969081903239F08E2F8C19883030
:1035000011F48EE28D939D933196C757DF4F8881DA
:103510009981C958D040E817F90761F71C921E86B7
:10352000F2018081882331F4CE010E9660E071E0D3
:103530000E94780FCE010E96B2010E94780FCE0144
:103540000E96BE016F5F7F4F0E94780FCE010E96E0
:1035500060E071E00E94780F1BA61EA61AA682E00A
:1035600093E099A788A7CE018B96B501AE014F5F76
:103570005F4F21E00E94BF5C882361F5F3018081E9
:103580009181892B39F5C357DF4F6881CD58D040E1
:103590000FEE10E008C086ED9EE00E9445120F5F1E
:1035A0001F4FF80164916623B1F786ED9EE062E05B
:1035B00071E06DD886ED9EE06AE00E94451286EDCE
:1035C0009EE0BE016F5F7F4F62D886ED9EE06AE0AD
:1035D0000E944512C557DF4FA881B981CB58D04012
:1035E000FE01BB968BE101900D928150E1F78AA517
:1035F000F101828382E093E091838083C701BE0161
:10360000625F7F4FA101F9DEC1010E94FD12CE0170
:1036100088960E94FD1282C0953E09F47FC09E32BA
:1036200009F47CC09F3509F479C0F7019189992389
:1036300031F09E3209F472C09F3509F46FC043FD2A
:103640006DC080E06031710509F481E0F70184A765
:10365000882349F4F6018085873409F05FC08185AD
:103660008E3709F45BC0CC57DF4FA881B981C458AD
:10367000D040F6018081803241F08E2F8C19883045
:1036800011F48EE28D9380818D933196C757DF4F71
:1036900088819981C958D040E817F90759F71C92D9
:1036A000F301808191810097A9F486ED9EE0B2013B
:1036B0000E94471386ED9EE0CC57DF4F68817981E9
:1036C000C458D0400E94471386ED9EE06AE00E94F5
:1036D000451224C08130910539F4F4018081918133
:1036E0000196918380831AC00297C1F4CA57DF4FB5
:1036F000F881C658D0402F2F30E0F40180819181AD
:1037000028173907F1F0CA57DF4FF881C658D04063
:10371000FF5FCA57DF4FF883C658D040C501B601D6
:10372000C957DF4F48815981C758D0400E94E3579D
:1037300018160CF4C6CE05C0F6019081992309F045
:103740006BCFC357DF4F0FB6F894DEBF0FBECDBFB0
:10375000CF91DF911F910F91FF90EF90DF90CF906D
:10376000BF90AF909F908F907F906F905F904F90A1
:103770003F902F900895EF92FF920F931F93DF9346
:10378000CF93CDB7DEB76E970FB6F894DEBF0FBEFE
:10379000CDBF7C018C01035B1F4F815B9F4FF80104
:1037A0009183808327EF30E0E20EF31E21E030E0CA
:1037B000F701219331937F011182108227E03FEFBF
:1037C000E20EF31E039640E050E060E070E00E94DD
:1037D000BB54F80120813181DE011496F901339642
:1037E0008BE101900D928150E1F7F90182818B8389
:1037F00082E093E09A838983C70165E171E08E01DD
:103800000F5F1F4FA801F9DDC8010E94FD12F701EB
:10381000E750FF4F808191816E960FB6F894DEBF1E
:103820000FBECDBFCF91DF911F910F91FF90EF9011
:103830000895EF92FF920F931F93DF93CF93CDB72D
:10384000DEB76E970FB6F894DEBF0FBECDBF7C011A
:103850008C01035B1F4F815B9F4FF8019183808335
:1038600027EF30E0E20EF31E22E030E0F701318373
:10387000208329E03FEFE20EF31EF701E750FF4FF0
:1038800060831182039640E050E060E070E00E94A7
:10389000BB54F80120813181DE011496F901339681
:1038A0008BE101900D928150E1F7F90182818B83C8
:1038B00082E093E09A838983C70165E171E08E011C
:1038C0000F5F1F4FA80199DDC8010E94FD126E967F
:1038D0000FB6F894DEBF0FBECDBFCF91DF911F9121
:1038E0000F91FF90EF900895EF92FF920F931F9327
:1038F000DF93CF93CDB7DEB76E970FB6F894DEBFE8
:103900000FBECDBF7C0187EF90E0E80EF91EF701F6
:103910001182108289E09FEFE80EF91E87010E5C8C
:103920001F4FC80140E050E060E070E00E94BB54CF
:10393000DE011496F8018BE101900D928150E1F7C0
:10394000F70181A98B8382E093E09A838983C70181
:1039500065E171E08E010F5F1F4FA8014EDDC801C8
:103960000E94FD126E960FB6F894DEBF0FBECDBF5B
:10397000CF91DF911F910F91FF90EF900895EF92FB
:10398000FF920F931F93DF93CF93CDB7DEB7E197ED
:103990000FB6F894DEBF0FBECDBFDE011296E2EB8C
:1039A000F2E080E101900D928150E1F7DE01529644
:1039B000E2EAF2E080E101900D928150E1F7DE0150
:1039C0009296E2E9F2E080E101900D928150E1F7F8
:1039D0008A819B81AC81BD8180937F069093800614
:1039E000A0938106B09382068A899B89AC89BD89A0
:1039F00080936F0690937006A0937106B093720641
:103A00008AA19BA1ACA1BDA180938F069093900643
:103A1000A0939106B09392068E819F81A885B98567
:103A20008093830690938406A0938506B0938606C0
:103A30008E899F89A88DB98D8093730690937406A3
:103A4000A0937506B09376068EA19FA1A8A5B9A5EF
:103A50008093930690939406A0939506B093960650
:103A60008A859B85AC85BD85809387069093880663
:103A7000A0938906B0938A068A8D9B8DAC8DBD8DEF
:103A80008093770690937806A0937906B0937A0690
:103A90008AA59BA5ACA5BDA5809397069093980693
:103AA000A0939906B0939A068E859F85A889B989B7
:103AB00080938B0690938C06A0938D06B0938E0610
:103AC0008E8D9F8DA8A1B9A180937B0690937C06D3
:103AD000A0937D06B0937E068EA59FA5A8A9B9A93F
:103AE00080939B0690939C06A0939D06B0939E06A0
:103AF0000E94CC4080E090E0AAEFB4E48093A3065B
:103B00009093A406A093A506B093A60680E090E447
:103B1000ACE1B5E48093A7069093A806A093A9060C
:103B2000B093AA0620E030E040E050E020939F06EA
:103B30003093A0064093A1065093A20680E29EE433
:103B4000A0E0B0E080936B0690936C06A0936D06A6
:103B5000B0936E062093B7063093B8064093B9062B
:103B60005093BA0680E090E0A0E9B1E48093AB0600
:103B70009093AC06A093AD06B093AE068DEC9CEC92
:103B8000ACECBDE38093AF069093B006A093B10672
:103B9000B093B20680E090E0A0E2B1E48093B30677
:103BA0009093B406A093B506B093B606209385040F
:103BB00030938604409387045093880420938104B3
:103BC00030938204409383045093840420937D04B3
:103BD00030937E0440937F045093800484EB90E004
:103BE00090936F0E80936E0E86E490E09093710E2A
:103BF0008093700E2FEF30E03093730E2093720E8F
:103C00008BEE90E09093750E8093740E84E690E0B6
:103C10009093770E8093760E3093790E2093780EE2
:103C20008AE999E9A1EBB1E4809360029093610283
:103C3000A0936202B093630261E77DE38AE89FE3A9
:103C40000E944F6B609364027093650280936602DA
:103C50009093670260E070E084EE92E40E945B6BF8
:103C6000609368027093690280936A0290936B027A
:103C70000E94666A80E090E0A0E8BFE380936C0257
:103C800090936D02A0936E02B0936F02E1E5F2E0B3
:103C900084918F017E010894E11CF11C0CC0898382
:103CA00086ED9EE0B70141E050E00E946AC10F5FDF
:103CB0001F4FF8018491882391F7E7E5F2E08491A2
:103CC0008F017E010894E11CF11C0CC0898386EDF4
:103CD0009EE0B70141E050E00E946AC10F5F1F4FB4
:103CE000F8018491882391F78AE0898386ED9EE02C
:103CF000B70141E050E00E946AC1E1960FB6F89426
:103D0000DEBF0FBECDBFCF91DF911F910F91FF900E
:103D1000EF900895CF93DF930FB6F8948091CE0E75
:103D20009091CF0EA091D00EB091D10E0FBE809386
:103D3000AA049093AB04A093AC04B093AD04E091BB
:103D4000D304F091D404EB52FB4F8081882399F483
:103D5000EEE2F3E06491EF0107C086ED9EE00E9481
:103D600045122196FE0164916623B9F786ED9EE027
:103D70006AE00E944512DF91CF910895EF92FF9281
:103D80000F931F93CF93DF93EC01E0908904F090A1
:103D90008A0400918B0410918C04688179818A8156
:103DA0009B81A80197010E94CBC3882324F4E88259
:103DB000F9820A831B83E0908D04F0908E040091B9
:103DC0008F04109190046C817D818E819F81A80168
:103DD00097010E94CBC3882324F4EC82FD820E83DA
:103DE0001F83E0909104F09092040091930410914D
:103DF0009404688579858A859B85A80197010E942E
:103E0000CBC3882324F4E886F9860A871B87E090D1
:103E10003A02F0903B0200913C0210913D02688111
:103E200079818A819B81A80197010E94D9C51816C2
:103E300024F4E882F9820A831B83E0903E02F0902A
:103E40003F0200914002109141026C817D818E8180
:103E50009F81A80197010E94D9C5181624F4EC820D
:103E6000FD820E831F83E0904202F0904302009196
:103E7000440210914502688579858A859B85A80151
:103E800097010E94D9C5181624F4E886F9860A8796
:103E90001B87DF91CF911F910F91FF90EF900895B5
:103EA0008091A00408958130910541F46F5F7F4FA8
:103EB00009F051C08AE693E00C945D12892B09F059
:103EC0004AC06F5F7F4F09F046C082E093E0909355
:103ED00037048093360480913C04882321F089E3E1
:103EE00094E00E94D25582E093E09093F603809391
:103EF000F5038091FB03882321F088EF93E00E9473
:103F0000D25582E093E09093D8038093D7038091B9
:103F1000DD03882321F08AED93E00E94D25582E0F0
:103F200093E09093BA038093B9038091BF038823F1
:103F300021F08CEB93E00E94D25582E093E09093C5
:103F40009A038093990380919F03882321F08CE941
:103F500093E00C94D255089580E090E06FEF7FEFEE
:103F6000A2CF81E090E06FEF7FEF9DCFCF93DF9303
:103F70000E94396B8091A004882309F038C081E049
:103F80008093A0048091A2049091A304A091A40422
:103F9000B091A5048093A6049093A704A093A804CD
:103FA000B093A904EFE7F2E06491EF0107C086ED5A
:103FB0009EE00E9445122196FE0164916623B9F7A6
:103FC000E0E9F2E06491EF0107C086ED9EE00E9417
:103FD00045122196FE0164916623B9F786ED9EE0B5
:103FE0006AE00E94451286E892E00E94D4B3DF9115
:103FF000CF910895CF93DF93F8940E94396B779A0D
:10400000769A479A429A82988A9880917E008B7F0E
:1040100080937E00EFE7F2E06491EF0107C086ED48
:104020009EE00E9445122196FE0164916623B9F735
:10403000EFE0F3E06491EF0107C086ED9EE00E949F
:1040400045122196FE0164916623B9F786ED9EE044
:104050006AE00E94451286E093E00E94E3B3FFCF3E
:10406000EF92FF920F931F930FB6F8948091CE0EAC
:104070009091CF0EA091D00EB091D10E0FBEE090D6
:10408000AE04F090AF040091B0041091B1042091FF
:10409000AA043091AB044091AC045091AD04821B52
:1040A000930BA40BB50BE816F9060A071B0730F4AF
:1040B000E114F1040105110509F09CDFE0904602CE
:1040C000F09047020091480210914902E114F10476
:1040D0000105110531F10FB6F8948091CE0E909143
:1040E000CF0EA091D00EB091D10E0FBE2091AA0498
:1040F0003091AB044091AC045091AD04821B930B02
:10410000A40BB50BE816F9060A071B0750F49091AB
:10411000AC0B8091AD0B981721F4779A769A479A59
:10412000429A0E947A401F910F91FF90EF9008955C
:104130006F927F928F929F92AF92BF92CF92DF92B7
:10414000EF92FF920F931F93F82E6091B20470913B
:10415000B3048091B4049091B5042091B6043091D9
:10416000B7044091B8045091B9040E94E6C53B01E0
:104170004C0100D000D000D00DB71EB70F5F1F4F0D
:104180006091360270913702882777FD8095982FCD
:104190000E946DC420914A0230914B0240914C0222
:1041A00050914D020E94ABC620E030E040E752E45F
:1041B0000E94D2C320E030E048EC52E40E94D2C317
:1041C0005B016C01F8016082718282829382F482C9
:1041D0008091950485838DE694E06EEB74E042EB6C
:1041E00054E020E001E032E0E32E0E94DF3B8091CA
:1041F000BE049091BF04A091C004B091C10480930B
:104200006D0490936E04A0936F04B093700480913A
:10421000C2049091C304A091C404B091C5048093DA
:10422000710490937204A0937304B093740480910A
:10423000C6049091C704A091C804B091C9048093AA
:10424000750490937604A0937704B09378048091DA
:10425000CA049091CB04A091CC04B091CD0480937A
:10426000790490937A04A0937B04B0937C040FB6F6
:10427000F8948091CE0E9091CF0EA091D00EB09177
:10428000D10E0FBE8093AA049093AB04A093AC040C
:10429000B093AD048DB79EB706960FB6F8949EBF47
:1042A0000FBE8DBF1F910F91FF90EF90DF90CF90C9
:1042B000BF90AF909F908F907F906F900895CF9216
:1042C000DF92EF92FF920F931F938EEB94E056DDF7
:1042D0000FB6F8948091CE0E9091CF0EA091D00E93
:1042E000B091D10E0FBE8093AA049093AB04A0931B
:1042F000AC04B093AD0460916D0470916E04809134
:104300006F04909170042091BE043091BF044091DD
:10431000C0045091C1040E94CBC3882309F07AC025
:10432000609171047091720480917304909174048F
:104330002091C2043091C3044091C4045091C5043B
:104340000E94CBC3882309F065C060914A02709136
:104350004B0280914C0290914D0220E030E040E70A
:1043600052E40E94D2C37B018C018EEB94E062EC9C
:1043700074E046EC54E02AEC34E0E5E9CE2EE4E0CB
:10438000DE2E0E94FB458091BE049091BF04A09157
:10439000C004B091C10480936D0490936E04A09307
:1043A0006F04B09370048091C2049091C304A091F3
:1043B000C404B091C5048093710490937204A093D7
:1043C0007304B09374048091C6049091C704A091C3
:1043D000C804B091C9048093750490937604A093A7
:1043E0007704B09378048091CA049091CB04A09193
:1043F000CC04B091CD048093790490937A04A09377
:104400007B04B0937C041F910F91FF90EF90DF909D
:10441000CF9008956091360270913702882777FD1A
:104420008095982F0E946DC420914A0230914B02D2
:1044300040914C0250914D020E94ABC620E030E00A
:1044400040E752E40E94D2C320E030E048EC52E45E
:1044500088CFCF93DF9386ED9EE00E9452C1E1E3C7
:10446000F3E06491EF0107C086ED9EE00E944512E3
:104470002196FE0164916623B9F74091A204509100
:10448000A3046091A4047091A5044F5F5F4F6F4F28
:104490007F4F86ED9EE00E9425C086ED9EE06AE09B
:1044A0000E94451237DCDF91CF9108952F923F9201
:1044B0004F925F926F927F928F929F92AF92BF9234
:1044C000CF92DF92EF92FF920F931F93DF93CF93E0
:1044D00000D000D000D0CDB7DEB78C01833091057D
:1044E00008F051C13C01660C771C660C771C9301E7
:1044F00023593B4F3A83298380E090E0A0E0B0E06D
:10450000F90180839183A283B3838DE694E061E710
:1045100074E045E754E029E734E00E941441F301D8
:10452000E352FB4F65917591859194910B501B4F10
:10453000F801E490930122543B4F3E832D8320E009
:1045400030E040EC5FE30E94ABC65B016C01FF24EE
:10455000E7FCF0940F2D1F2DC801B7010E946DC418
:104560001B012C01C601B501A20191010E94ABC63D
:10457000AD81BE816D937D938D939C931397F301D1
:10458000EA5DFD4FFC83EB836081718182819381C1
:1045900060934A0270934B0280934C0290934D02B9
:1045A00020E030E040E752E40E94D2C37B018C015E
:1045B0008EEB94E062EC74E046EC54E02AEC34E0DC
:1045C000A5E9CA2EA4E0DA2E0E94FB450E9457639B
:1045D00080E090E0A0E0B0E0E981FA8180839183FF
:1045E000A283B3838DE694E061E774E045E754E08D
:1045F00029E734E00E941441F301E751FB4F859015
:104600009590A590B490C501B4019058A201910174
:104610000E94ABC6AD81BE816D937D938D939C93BB
:10462000139760914A0270914B0280914C029091D5
:104630004D0220E030E040E752E40E94D2C37B010B
:104640008C018EEB94E062EC74E046EC54E02AECD2
:1046500034E00E94FB450E945763C501B401A501E7
:1046600094010E94F2C2A20191010E94ABC6ED81A9
:10467000FE816083718382839383AB81BC816D9162
:104680007D918D919C9120E030E040E05FE30E94BD
:10469000ABC660934A0270934B0280934C02909396
:1046A0004D0220E030E040E752E40E94D2C37B019B
:1046B0008C018EEB94E062EC74E046EC54E02AEC62
:1046C00034E00E94FB450E945763F301E850FB4F22
:1046D0006591759185919491F301E358FB4FA0800A
:1046E000B180C280D380A60195010E94F2C27B01F5
:1046F0008C01CB01D801E981FA8180839183A28367
:10470000B383F301EC5FFA4F6591759185919491B4
:10471000F9E88F2EF4E09F2E860C971CA6019501D8
:104720000E94F2C2D4016D937D938D939C93139755
:10473000F301E05FFA4F6591759185919491EAE3F9
:10474000F2E06E0E7F1EA60195010E94F2C2D30117
:104750006D937D938D939C931397C701D801ED8141
:10476000FE8180839183A283B38380E090E0A0E008
:10477000B0E080934A0290934B02A0934C02B09316
:104780004D020E947B6226960FB6F894DEBF0FBEE4
:10479000CDBFCF91DF911F910F91FF90EF90DF90F0
:1047A000CF90BF90AF909F908F907F906F905F90D1
:1047B0004F903F902F9008954091D3045091D4048E
:1047C00020E630E0B901469F9001479F300D569F8B
:1047D000300D1124682F772767FD7095C90181522C
:1047E0009B4F0E94830F9C019093DE048093DD0415
:1047F00080E0232B09F081E00895EF92FF920F9360
:104800001F93CF93DF93EC017A018B01FC0164913C
:1048100007C086ED9EE00E9445122196FE0164913C
:104820006623B9F786ED9EE0B801A70122E00E9459
:1048300036C0DF91CF911F910F91FF90EF900895B7
:104840008091DD049091DE04019660E070E04AE022
:1048500050E00C94E20D8091DD049091DE0401960D
:1048600060E070E00C94850C0F931F93CF93DF935F
:104870008C01809195048093A10484E59DDF8823B9
:1048800009F44EC0E8DF0E943FC46093A104662390
:1048900009F446C0E9E7F2E06491EF0107C086ED54
:1048A0009EE00E9445122196FE0164916623B9F7AD
:1048B0000936110599F00A36110524F40836110558
:1048C000E9F407C00D36110571F00A3D1105B1F488
:1048D0000FC086ED9EE066E171E00EC086ED9EE0C1
:1048E0006DE271E009C086ED9EE064E471E004C011
:1048F00086ED9EE06BE571E00E9447134091A104B4
:1049000050E060E070E086ED9EE02AE000E00E946A
:104910009ABF86ED9EE06AE00E94451281E001C0E8
:1049200080E0DF91CF911F910F910895AF92BF92D8
:10493000CF92DF92EF92FF920F931F93CF93DF936B
:104940001DE6E12E14E0F12ECEEBD4E000E010E005
:10495000F801EE53FD4F80812FDF882331F17BDF9B
:104960005B016C01F801E959FB4F8081882311F04C
:1049700061E002C06091CE0470E0882777FD8095E9
:10498000982F0E946DC4F7012081318142815381AB
:104990000E94ABC69B01AC01C601B5010E94F2C2E8
:1049A000688379838A839B8309C0F7018081918121
:1049B000A281B38188839983AA83BB830F5F1F4F32
:1049C00084E090E0E80EF91E24960430110509F009
:1049D000BFCF86E4F1DE8823D9F03DDF7B018C0177
:1049E0006093CF047093D0048093D1049093D20449
:1049F00020E030E040E050E00E94D9C5181644F4B1
:104A0000E0924A02F0924B0200934C0210934D0246
:104A1000DF91CF911F910F91FF90EF90DF90CF909A
:104A2000BF90AF90089582DF89E4C6DE882351F0FD
:104A300012DF6093B2047093B3048093B404909334
:104A4000B5040CC080E090E0A0E0B0E08093B20438
:104A50009093B304A093B404B093B5048AE4ACDE9D
:104A6000882351F0F8DE6093B6047093B704809306
:104A7000B8049093B904089580E090E0A0E0B0E01D
:104A80008093B6049093B704A093B804B093B9048C
:104A900008952F923F924F925F926F927F928F92E2
:104AA0009F92AF92BF92CF92DF92EF92FF920F93BD
:104AB0001F93DF93CF93CDB7DEB76E970FB6F89401
:104AC000DEBF0FBECDBF87E477DE882309F433C293
:104AD000C2DE0E943AC46430710509F43CC06530FE
:104AE000710554F46230710531F16330710554F58C
:104AF0007723CCF40C9471346A35710509F4CAC17A
:104B00006B35710534F46C31710511F00C9471340E
:104B10007EC06B35710509F4C1C16C35710511F0AA
:104B20000C947134C0C18091A004882321F4FEDE6E
:104B3000C6DB0C94A8348091A004882319F473DF99
:104B400081E006C08091A004882329F46CDF80E016
:104B5000EFDA0C94A83484ED94E00E94D4B380E59D
:104B60002BDE882321F4EE24FF24870105C073DEA9
:104B70000E943FC47B018C0183E51EDE882359F02F
:104B80006ADE20E030E04AE754E40E94ABC60E94AF
:104B90003FC47B018C010E9457630FB6F894A0902C
:104BA000CE0EB090CF0EC090D00ED090D10E0FBED2
:104BB000AE0CBF1CC01ED11E0FB6F8948091CE0E55
:104BC0009091CF0EA091D00EB091D10E0FBE8093D8
:104BD000AA049093AB04A093AC04B093AD0405C0B9
:104BE0000E94626F3DDA0E9405B40FB6F89480917E
:104BF000CE0E9091CF0EA091D00EB091D10E0FBEDF
:104C00008A159B05AC05BD0558F30C947134809151
:104C10004A0290914B02A0914C02B0914D028093B8
:104C2000D9049093DA04A093DB04B093DC04809160
:104C300036029091370290936C0480936B0484E663
:104C400090E090933702809336020FB6F8948091EB
:104C5000CE0E9091CF0EA091D00EB091D10E0FBE7E
:104C60008093AA049093AB04A093AC04B093AD04DA
:104C700081E00E94826280916D0490916E04A09107
:104C80006F04B09170048093BE049093BF04A0930E
:104C9000C004B093C1048091710490917204A091FA
:104CA0007304B09174048093C2049093C304A093DE
:104CB000C404B093C5048091750490917604A091CA
:104CC0007704B09178048093C6049093C704A093AE
:104CD000C804B093C9048091790490917A04A0919A
:104CE0007B04B0917C048093CA049093CB04A0937E
:104CF000CC04B093CD0480E090E0A0E0B0E08093DD
:104D00004A0290934B02A0934C02B0934D0288E567
:104D100053DD882351F489E54FDD882331F48AE59A
:104D20004BDD882311F481E001C080E080934E02C6
:104D3000882321F488E540DD882319F080E090E0A5
:104D4000B5DB80914E02882321F489E535DD882387
:104D500019F081E090E0AADB80914E02882321F4D3
:104D60008AE52ADD882319F082E090E09FDB88E560
:104D700023DD8823C9F064DD611571058105910586
:104D800099F069DD20917D0430917E0440917F048B
:104D9000509180040E94F2C260936D0470936E047F
:104DA00080936F049093700489E506DD8823C9F031
:104DB00047DD611571058105910599F04CDD209164
:104DC00081043091820440918304509184040E94B4
:104DD000F2C2609371047093720480937304909391
:104DE00074048AE5E9DC8823C9F02ADD61157105C0
:104DF0008105910599F02FDD20918504309186047D
:104E000040918704509188040E94F2C26093750417
:104E10007093760480937704909378048DE694E001
:104E200061E774E045E754E029E734E00E9414416B
:104E300080E00E9482628091D9049091DA04A0916E
:104E4000DB04B091DC0480934A0290934B02A09360
:104E50004C02B0934D0280916B0490916C0490933E
:104E60003702809336020FB6F8948091CE0E90915F
:104E7000CF0EA091D00EB091D10E0FBE8093AA0498
:104E80009093AB04A093AC04B093AD040E947B62FA
:104E90000C9471341092CE040C94713481E08093A0
:104EA000CE040C94713485E487DC882311F40E94CD
:104EB00057635DE6E52E54E0F52E4DE7C42E44E041
:104EC000D42E00E010E0F801EE53FD4F808174DC39
:104ED000882321F1033059F4BEDCF701608371832C
:104EE0008283938389E794E00E94F74017C0B3DC84
:104EF000F60120813181428153810E94F2C2F70183
:104F000060837183828393838DE694E061E774E02C
:104F100045E754E029E734E00E9414410F5F1F4F3A
:104F200044E050E0E40EF51EC40ED51E0430110519
:104F300051F60C9471348DE43FDC882311F40C9409
:104F4000B53389DC0E943AC46A36710509F483C717
:104F50006B3671050CF080C06C31710509F42DC2FF
:104F60006D317105C4F56531710509F4C0C1663153
:104F70007105BCF46131710509F486C162317105B6
:104F800034F46230710510F00C94713409C162314F
:104F9000710509F4A1C76431710511F00C947134E5
:104FA0007DC16831710509F4C6C16931710554F4D8
:104FB0006631710509F4A1C16731710511F00C94D6
:104FC0007134A1C16A31710509F4D4C16B31710525
:104FD0000CF0EDC1C9C16235710509F476C76335BE
:104FE0007105DCF46A32710509F454C36B32710542
:104FF00054F46E31710509F41CC26F31710511F062
:105000000C94713496C26035710509F458C7613546
:10501000710511F00C94713455C76535710509F4AB
:10502000A4C76635710554F46335710509F450C79A
:105030006435710511F00C9471344EC768367105F2
:1050400009F467C3693671050CF08FC36C357105BF
:1050500011F00C9471349FC76C3C710511F40C94E1
:10506000F9316D3C71050CF048C06737710511F4DA
:105070000C94573168377105ECF46237710511F4FF
:105080000C9476306337710554F46B36710509F46E
:1050900011C76D36710511F00C94713435C4633746
:1050A000710509F4FDC76537710511F00C94713471
:1050B0000C9460306C38710509F448C36D38710583
:1050C00064F46837710511F40C9451316937710536
:1050D00011F00C9471340C945331693C710511F446
:1050E0000C94B9316B3C710511F40C94DB316E3BBF
:1050F000710511F00C947134E5C551E06E327507FD
:1051000011F40C94543381E06F32780704F56C3D50
:10511000710511F40C9495326D3D710564F46D3C8C
:10512000710511F40C9419326E3C710511F00C9458
:1051300071340C9477326D3D710511F40C94A432E6
:105140006D52714011F00C9471340C94B332E1E063
:10515000653F7E0711F40C949B33F1E0663F7F07B7
:105160006CF421E06F32720711F40C9458336059DB
:10517000714011F00C9471340C94983353E0603A00
:10518000750709F49BC183E0673E780711F40C941E
:105190009E33665F714011F00C9471340C949B3314
:1051A00083EC94E00E94D4B380E506DB882321F4ED
:1051B000AA24BB24650105C04EDB0E943FC45B01ED
:1051C0006C0183E5F9DA882359F045DB20E030E013
:1051D0004AE754E40E94ABC60E943FC45B016C01E5
:1051E0000E9457630FB6F8948091CE0E9091CF0E27
:1051F000A091D00EB091D10E0FBE8093AA049093CF
:10520000AB04A093AC04B093AD04A114B104C104E9
:10521000D10481F10FB6F894E090CE0EF090CF0E4D
:105220000091D00E1091D10E0FBEEA0CFB1C0C1D8C
:105230001D1D0FB6F8948091CE0E9091CF0EA091C7
:10524000D00EB091D10E0FBE8E159F05A007B107ED
:10525000A8F480918F0E82FD11C00E94626F0E949F
:1052600030200E9405B4E5CF0E94626F0E9430207A
:105270000E9405B480918F0E82FFF6CF84EB94E0FC
:105280000E94D4B30C9471348BEA94E00E94D4B39E
:1052900077987698479842980C947134EBE9F4E04B
:1052A00064918F0108C086ED9EE00E9445120F5F59
:1052B0001F4FF80164916623B1F786ED9EE06AE026
:1052C0000E9445128AE693E00E94741CEDE8F4E027
:1052D00064918F0108C086ED9EE00E9445120F5F29
:1052E0001F4FF80164916623B1F70C946C348AE681
:1052F00093E00E9412180C9471348AE693E00E94A5
:10530000BB120C9471348091DD049091DE040496FC
:105310006AE270E00E94830FFC01009711F0319760
:1053200010826091DD047091DE046C5F7F4F8AE62D
:1053300093E041E07AC08AE693E00E94BF120FB684
:10534000F8948091CE0E9091CF0EA091D00EB09196
:10535000D10E0FBE8093980490939904A0939A0461
:10536000B0939B040C9471348AE693E00E94C612B9
:105370000C94713480916D03882311F40C94713472
:1053800083E51ADA882311F40C94713459DAAB01ED
:10539000BC0140935C0450935D0480935E04709361
:1053A0005F0489E394E00E94BB540C9471348AE654
:1053B00093E00E9485140C9471348091DD049091E7
:1053C000DE0404966AE270E00E94830F8C0100976D
:1053D00019F12091D3043091D40480E690E0AC011F
:1053E000249FC001259F900D349F900D1124815260
:1053F0009B4F6EE470E00E94830F60E270E00E94B9
:10540000830F9C012F5F3F4F3093DE042093DD0418
:1054100001501040F80110826091DD047091DE04AB
:105420006C5F7F4F8AE693E040E00E9429160C945F
:10543000713480916D03882311F40C9471348AE6E1
:1054400093E00E94FD138091DD049091DE040496A8
:105450006AE270E00E94830F8C01009719F120919D
:10546000D3043091D40480E690E0AC01249FC001C5
:10547000259F900D349F900D112481529B4F6EE417
:1054800070E00E94830F60E270E00E94830F9C0135
:105490002F5F3F4F3093DE042093DD040150104016
:1054A000F80110826091DD047091DE046C5F7F4F23
:1054B0008AE693E00E94E4140C9471348091DD0438
:1054C0009091DE0405966AE270E00E94830F8C01E1
:1054D000009719F12091D3043091D40480E690E034
:1054E000AC01249FC001259F900D349F900D112485
:1054F00081529B4F6EE470E00E94830F60E270E087
:105500000E94830F9C012F5F3F4F3093DE04209356
:10551000DD0401501040F80110826091DD047091AB
:10552000DE046B5F7F4F8AE693E00E940C180C94B8
:1055300071340FB6F8946091CE0E7091CF0E8091B9
:10554000D00E9091D10E0FBE60939C0470939D0479
:1055500080939E0490939F04209198043091990425
:1055600040919A0450919B04621B730B840B950B22
:1055700028EE33E040E050E00E94C3C7F22EE32E55
:10558000D42EC52E4DB75EB7485050400FB6F89494
:105590005EBF0FBE4DBF0DB71EB70F5F1F4FCE01D1
:1055A0000196EDB7FEB7928381838EE794E0F80110
:1055B000938382836F2D7E2D8D2D9C2D2CE330E0E7
:1055C00040E050E00E94C3C7F801358324836F2D6B
:1055D0007E2D8D2D9C2D2CE330E040E050E00E948C
:1055E000C3C7F801778366830E94B20FE9E7F2E050
:1055F00064918F014DB75EB7485F5F4F0FB6F89467
:105600005EBF0FBE4DBF08C086ED9EE00E944512F2
:105610000F5F1F4FF80164916623B1F786ED9EE09E
:105620008E010F5F1F4FB8010E94471386ED9EE069
:105630006AE00E944512C8010E94F6B38091DB0621
:10564000882311F40C9471341092DB068091950438
:10565000082F10E0000F111F045E114FF801608148
:105660007181882777FD8095982F0E946DC42091C5
:1056700053023091540240915502509156020E94BB
:10568000D9C5181614F00C947134F80111821082E7
:105690000C94713483E590D8882311F40C94713400
:1056A000DAD80E943AC47B018C016B0180E584D872
:1056B000882361F0F7FC0AC0FFEFEF16F10409F050
:1056C0002CF4C9D80E943AC47B0103C0EE24EA94AA
:1056D000FE2CE6ECF2E0808191818E159F0511F49D
:1056E0000C947134329623E0E633F207A1F7F7FE0B
:1056F00002C00C9471348E2D0E94C9BAEE2DF0E0D8
:105700000C2C0E94DABA8E2DB6010E9484BC0C9437
:10571000713488E690E0A8D8882311F00C94713495
:1057200083E54AD8882371F096D82091A104022FEE
:1057300010E0000F111F045E114F0E943AC4F801DF
:10574000718360830E94386B0C94713483E534D884
:10575000882311F40C9471347ED80E943AC470935B
:105760001F0E60931E0E0C94713489E690E07CD875
:10577000882311F00C947134E8E7F4E064918F0110
:1057800008C086ED9EE00E9445120F5F1F4FF80192
:1057900064916623B1F7E091A104F0E0EE0FFF1FE2
:1057A000EE0FFF1FEE5DF14F4081518162817381E9
:1057B00086ED9EE021E00E9436C0E5E7F4E06491CA
:1057C0008F0108C086ED9EE00E9445120F5F1F4FBB
:1057D000F80164916623B1F7E091A104F0E0EE0FC7
:1057E000FF1FE45EF14F60817181882777FD80950E
:1057F000982F0E946DC4AB01BC0186ED9EE021E0B4
:105800000E9436C0E1E7F4E064918F0108C086EDA4
:105810009EE00E9445120F5F1F4FF80164916623BE
:10582000B1F74091280E5091290E60912A0E709187
:105830002B0E86ED9EE021E00E9436C0EEE6F4E0FD
:1058400064918F0108C086ED9EE00E9445120F5FB3
:105850001F4FF80164916623B1F760911E0E70919D
:105860001F0E882777FD8095982F0E946DC4AB018D
:10587000BC0186ED9EE021E00E9436C0EAE6F4E03D
:1058800064918F0108C086ED9EE00E9445120F5F73
:105890001F4FF80164916623B1F78091A10490E055
:1058A0000E947D6AAC01662757FD6095762F86EDD4
:1058B0009EE00E9425C0E5E6F4E064918F0108C0F7
:1058C00086ED9EE00E9445120F5F1F4FF801649124
:1058D0006623B1F78FEF9FEF0E947D6AAC016627C8
:1058E00057FD6095762F86ED9EE00E9425C086EDDF
:1058F0009EE062E771E00E94471386ED9EE06AE059
:105900000E9445120C94A8348DE690E00E94342445
:10591000882309F0E6C78AE594E00E94D4B3109288
:10592000DB0683E50E94DC23882379F00E942B2488
:105930002091A104022F10E0000F111F045E114FEF
:105940000E943AC4F8017183608383E50E94DC23DE
:10595000882351F00E942B246093530270935402C9
:10596000809355029093560282E40E94DC238823A0
:1059700051F00E942B2460934F0270935002809349
:1059800051029093520286E40E94DC23882369F03E
:105990000E942B24609357027093580280935902FF
:1059A00090935A0281E08093DB060E94386B0FB619
:1059B000F8948090CE0E9090CF0EA090D00EB09024
:1059C000D10E0FBE2091A104022F10E07724000F0A
:1059D000111FF801E45EF14F60817181882777FD26
:1059E0008095982F0E946DC4000F111F0E5D114FFE
:1059F000F80120813181428153810E94D9C5181656
:105A000014F477247394CC24CA94DC2C7601E7E553
:105A1000F4E04490E3E5F4E05490EFE4F4E06490C3
:105A20003BC1642D07E514E008C086ED9EE00E94AE
:105A300045120F5F1F4FF80164916623B1F7E091A3
:105A4000A104F0E0EE0FFF1FEE0FFF1FEE5DF14F20
:105A5000408151816281738186ED9EE021E00E9448
:105A600036C0652D03E514E008C086ED9EE00E9477
:105A700045120F5F1F4FF80164916623B1F7409103
:105A8000A10450E0662757FD6095762F86ED9EE0D5
:105A90000E9425C0662D0FE414E008C086ED9EE04C
:105AA0000E9445120F5F1F4FF80164916623B1F702
:105AB000F7FC24C00FB6F8942091CE0E3091CF0E93
:105AC0004091D00E5091D10E0FBEC701B601605F5C
:105AD000784D8F4F9F4F621B730B840B950B28EEF5
